{
  "contractName": "Meme",
  "abi": [
    {
      "inputs": [
        {
          "internalType": "string",
          "name": "hashString",
          "type": "string"
        }
      ],
      "name": "store",
      "outputs": [],
      "stateMutability": "nonpayable",
      "type": "function"
    },
    {
      "inputs": [
        {
          "internalType": "address",
          "name": "_senderAddress",
          "type": "address"
        }
      ],
      "name": "retrieve",
      "outputs": [
        {
          "components": [
            {
              "internalType": "string",
              "name": "hash",
              "type": "string"
            }
          ],
          "internalType": "struct Meme.Dtx[]",
          "name": "",
          "type": "tuple[]"
        }
      ],
      "stateMutability": "view",
      "type": "function",
      "constant": true
    }
  ],
  "bytecode": "0x608060405234801561001057600080fd5b50610744806100206000396000f3fe608060405234801561001057600080fd5b50600436106100365760003560e01c80630a79309b1461003b578063131a06801461006b575b600080fd5b6100556004803603810190610050919061035b565b610087565b604051610062919061050d565b60405180910390f35b61008560048036038101906100809190610664565b6101b2565b005b60606000808373ffffffffffffffffffffffffffffffffffffffff1673ffffffffffffffffffffffffffffffffffffffff168152602001908152602001600020805480602002602001604051908101604052809291908181526020016000905b828210156101a757838290600052602060002001604051806020016040529081600082018054610116906106dc565b80601f0160208091040260200160405190810160405280929190818152602001828054610142906106dc565b801561018f5780601f106101645761010080835404028352916020019161018f565b820191906000526020600020905b81548152906001019060200180831161017257829003601f168201915b505050505081525050815260200190600101906100e7565b505050509050919050565b6000803373ffffffffffffffffffffffffffffffffffffffff1673ffffffffffffffffffffffffffffffffffffffff168152602001908152602001600020604051806020016040528083815250908060018154018082558091505060019003906000526020600020016000909190919091506000820151816000019080519060200190610240929190610246565b50505050565b828054610252906106dc565b90600052602060002090601f01602090048101928261027457600085556102bb565b82601f1061028d57805160ff19168380011785556102bb565b828001600101855582156102bb579182015b828111156102ba57825182559160200191906001019061029f565b5b5090506102c891906102cc565b5090565b5b808211156102e55760008160009055506001016102cd565b5090565b6000604051905090565b600080fd5b600080fd5b600073ffffffffffffffffffffffffffffffffffffffff82169050919050565b6000610328826102fd565b9050919050565b6103388161031d565b811461034357600080fd5b50565b6000813590506103558161032f565b92915050565b600060208284031215610371576103706102f3565b5b600061037f84828501610346565b91505092915050565b600081519050919050565b600082825260208201905092915050565b6000819050602082019050919050565b600081519050919050565b600082825260208201905092915050565b60005b838110156103ee5780820151818401526020810190506103d3565b838111156103fd576000848401525b50505050565b6000601f19601f8301169050919050565b600061041f826103b4565b61042981856103bf565b93506104398185602086016103d0565b61044281610403565b840191505092915050565b6000602083016000830151848203600086015261046a8282610414565b9150508091505092915050565b6000610483838361044d565b905092915050565b6000602082019050919050565b60006104a382610388565b6104ad8185610393565b9350836020820285016104bf856103a4565b8060005b858110156104fb57848403895281516104dc8582610477565b94506104e78361048b565b925060208a019950506001810190506104c3565b50829750879550505050505092915050565b600060208201905081810360008301526105278184610498565b905092915050565b600080fd5b600080fd5b7f4e487b7100000000000000000000000000000000000000000000000000000000600052604160045260246000fd5b61057182610403565b810181811067ffffffffffffffff821117156105905761058f610539565b5b80604052505050565b60006105a36102e9565b90506105af8282610568565b919050565b600067ffffffffffffffff8211156105cf576105ce610539565b5b6105d882610403565b9050602081019050919050565b82818337600083830152505050565b6000610607610602846105b4565b610599565b90508281526020810184848401111561062357610622610534565b5b61062e8482856105e5565b509392505050565b600082601f83011261064b5761064a61052f565b5b813561065b8482602086016105f4565b91505092915050565b60006020828403121561067a576106796102f3565b5b600082013567ffffffffffffffff811115610698576106976102f8565b5b6106a484828501610636565b91505092915050565b7f4e487b7100000000000000000000000000000000000000000000000000000000600052602260045260246000fd5b600060028204905060018216806106f457607f821691505b60208210811415610708576107076106ad565b5b5091905056fea264697066735822122058be110110ab18322c3d2f2b813e1947205fd6c3bc33610f13f263531743517764736f6c634300080b0033",
  "immutableReferences": {},
  "source": "//SPDX-License-Identifier: MIT\r\n\r\npragma solidity ^0.8.0;\r\n\r\ncontract Meme {\r\n    \r\n    struct Dtx{\r\n        string hash;\r\n    }\r\n    mapping(address => Dtx[]) memes;\r\n\r\n\r\n    //write fxn \r\n    function store(string memory hashString) public {\r\n        memes[msg.sender].push(  Dtx(hashString));\r\n    }\r\n\r\n    //read fxn\r\n    function retrieve(address _senderAddress) public view returns (Dtx[] memory){\r\n        return memes[_senderAddress];\r\n    } \r\n\r\n\r\n\r\n}",
  "sourcePath": "C:\\Users\\workstation\\Desktop\\web3.0\\meme\\app\\contracts\\Meme.sol",
  "compiler": {
    "name": "solc",
    "version": "0.8.11+commit.d7f03943.Emscripten.clang"
  },
  "schemaVersion": "3.4.4",
  "updatedAt": "2022-01-20T11:12:10.509Z",
  "networkType": "ethereum",
  "devdoc": {
    "kind": "dev",
    "methods": {},
    "version": 1
  },
  "userdoc": {
    "kind": "user",
    "methods": {},
    "version": 1
  }
}